{
  "address": "0x59C68B4bEBC97C2B8c4dB740cA0530d83AC0e951",
  "abi": [
    {
      "inputs": [
        {
          "internalType": "address",
          "name": "owner",
          "type": "address"
        }
      ],
      "stateMutability": "nonpayable",
      "type": "constructor"
    },
    {
      "inputs": [
        {
          "internalType": "address",
          "name": "owner",
          "type": "address"
        }
      ],
      "name": "OwnableInvalidOwner",
      "type": "error"
    },
    {
      "inputs": [
        {
          "internalType": "address",
          "name": "account",
          "type": "address"
        }
      ],
      "name": "OwnableUnauthorizedAccount",
      "type": "error"
    },
    {
      "anonymous": false,
      "inputs": [
        {
          "indexed": true,
          "internalType": "address",
          "name": "previousOwner",
          "type": "address"
        },
        {
          "indexed": true,
          "internalType": "address",
          "name": "newOwner",
          "type": "address"
        }
      ],
      "name": "OwnershipTransferred",
      "type": "event"
    },
    {
      "anonymous": false,
      "inputs": [
        {
          "indexed": true,
          "internalType": "address",
          "name": "asset",
          "type": "address"
        },
        {
          "indexed": false,
          "internalType": "address",
          "name": "sparkPool",
          "type": "address"
        },
        {
          "indexed": false,
          "internalType": "address",
          "name": "sparkAToken",
          "type": "address"
        }
      ],
      "name": "SparkConfigRegistered",
      "type": "event"
    },
    {
      "anonymous": false,
      "inputs": [
        {
          "indexed": true,
          "internalType": "address",
          "name": "vault",
          "type": "address"
        },
        {
          "indexed": true,
          "internalType": "address",
          "name": "deployer",
          "type": "address"
        },
        {
          "indexed": false,
          "internalType": "string",
          "name": "name",
          "type": "string"
        },
        {
          "indexed": false,
          "internalType": "address",
          "name": "asset",
          "type": "address"
        },
        {
          "indexed": true,
          "internalType": "address",
          "name": "sparkPool",
          "type": "address"
        }
      ],
      "name": "VaultCreated",
      "type": "event"
    },
    {
      "inputs": [
        {
          "internalType": "address",
          "name": "asset",
          "type": "address"
        },
        {
          "internalType": "string",
          "name": "name",
          "type": "string"
        },
        {
          "internalType": "string",
          "name": "description",
          "type": "string"
        }
      ],
      "name": "createVault",
      "outputs": [
        {
          "internalType": "address",
          "name": "vaultAddress",
          "type": "address"
        }
      ],
      "stateMutability": "nonpayable",
      "type": "function"
    },
    {
      "inputs": [],
      "name": "getAllVaults",
      "outputs": [
        {
          "internalType": "address[]",
          "name": "addresses",
          "type": "address[]"
        }
      ],
      "stateMutability": "view",
      "type": "function"
    },
    {
      "inputs": [
        {
          "internalType": "address",
          "name": "asset",
          "type": "address"
        }
      ],
      "name": "getSparkConfig",
      "outputs": [
        {
          "internalType": "address",
          "name": "sparkPool",
          "type": "address"
        },
        {
          "internalType": "address",
          "name": "sparkAToken",
          "type": "address"
        },
        {
          "internalType": "bool",
          "name": "isConfigured",
          "type": "bool"
        }
      ],
      "stateMutability": "view",
      "type": "function"
    },
    {
      "inputs": [],
      "name": "getVaultCount",
      "outputs": [
        {
          "internalType": "uint256",
          "name": "count",
          "type": "uint256"
        }
      ],
      "stateMutability": "view",
      "type": "function"
    },
    {
      "inputs": [
        {
          "internalType": "address",
          "name": "deployer",
          "type": "address"
        }
      ],
      "name": "getVaultsByDeployer",
      "outputs": [
        {
          "internalType": "address[]",
          "name": "addresses",
          "type": "address[]"
        }
      ],
      "stateMutability": "view",
      "type": "function"
    },
    {
      "inputs": [],
      "name": "owner",
      "outputs": [
        {
          "internalType": "address",
          "name": "",
          "type": "address"
        }
      ],
      "stateMutability": "view",
      "type": "function"
    },
    {
      "inputs": [
        {
          "internalType": "address",
          "name": "asset",
          "type": "address"
        },
        {
          "internalType": "address",
          "name": "sparkPoolAddress",
          "type": "address"
        },
        {
          "internalType": "address",
          "name": "sparkATokenAddress",
          "type": "address"
        }
      ],
      "name": "registerSparkConfig",
      "outputs": [],
      "stateMutability": "nonpayable",
      "type": "function"
    },
    {
      "inputs": [],
      "name": "renounceOwnership",
      "outputs": [],
      "stateMutability": "nonpayable",
      "type": "function"
    },
    {
      "inputs": [
        {
          "internalType": "address",
          "name": "",
          "type": "address"
        }
      ],
      "name": "sparkConfigs",
      "outputs": [
        {
          "internalType": "address",
          "name": "sparkPool",
          "type": "address"
        },
        {
          "internalType": "address",
          "name": "sparkAToken",
          "type": "address"
        },
        {
          "internalType": "bool",
          "name": "isConfigured",
          "type": "bool"
        }
      ],
      "stateMutability": "view",
      "type": "function"
    },
    {
      "inputs": [
        {
          "internalType": "address",
          "name": "newOwner",
          "type": "address"
        }
      ],
      "name": "transferOwnership",
      "outputs": [],
      "stateMutability": "nonpayable",
      "type": "function"
    },
    {
      "inputs": [
        {
          "internalType": "uint256",
          "name": "",
          "type": "uint256"
        }
      ],
      "name": "vaults",
      "outputs": [
        {
          "internalType": "address",
          "name": "",
          "type": "address"
        }
      ],
      "stateMutability": "view",
      "type": "function"
    },
    {
      "inputs": [
        {
          "internalType": "address",
          "name": "",
          "type": "address"
        },
        {
          "internalType": "uint256",
          "name": "",
          "type": "uint256"
        }
      ],
      "name": "vaultsByDeployer",
      "outputs": [
        {
          "internalType": "address",
          "name": "",
          "type": "address"
        }
      ],
      "stateMutability": "view",
      "type": "function"
    }
  ],
  "transactionHash": "0xe35816ecbf78504cdcabbcce97c8d5c2ddf6fc572e7ae41e0b981bafd4a6bfd2",
  "args": [
    "0xa116e831e8658d497bf99d61e5acc7746d8fa11b"
  ],
  "numDeployments": 1,
  "solcInputHash": "fc381f9e17102cc18f4d7e2a311259a5",
  "bytecode": "0x608060405234801561001057600080fd5b50604051611959380380611959833981810160405281019061003291906101e2565b80600073ffffffffffffffffffffffffffffffffffffffff168173ffffffffffffffffffffffffffffffffffffffff16036100a55760006040517f1e4fbdf700000000000000000000000000000000000000000000000000000000815260040161009c919061021e565b60405180910390fd5b6100b4816100bb60201b60201c565b5050610239565b60008060009054906101000a900473ffffffffffffffffffffffffffffffffffffffff169050816000806101000a81548173ffffffffffffffffffffffffffffffffffffffff021916908373ffffffffffffffffffffffffffffffffffffffff1602179055508173ffffffffffffffffffffffffffffffffffffffff168173ffffffffffffffffffffffffffffffffffffffff167f8be0079c531659141344cd1fd0a4f28419497f9722a3daafe3b4186f6b6457e060405160405180910390a35050565b600080fd5b600073ffffffffffffffffffffffffffffffffffffffff82169050919050565b60006101af82610184565b9050919050565b6101bf816101a4565b81146101ca57600080fd5b50565b6000815190506101dc816101b6565b92915050565b6000602082840312156101f8576101f761017f565b5b6000610206848285016101cd565b91505092915050565b610218816101a4565b82525050565b6000602082019050610233600083018461020f565b92915050565b611711806102486000396000f3fe608060405234801561001057600080fd5b50600436106100b45760003560e01c80638c64ea4a116100715780638c64ea4a1461018f5780638da5cb5b146101bf57806397331bf9146101dd578063b0f654f9146101fb578063d5e154851461022d578063f2fde38b1461025d576100b4565b80631b212283146100b9578063515d61ec146100eb57806365949dad1461011b578063715018a61461013757806374d4e491146101415780637e880c8a1461015f575b600080fd5b6100d360048036038101906100ce9190610ed5565b610279565b6040516100e293929190610f2c565b60405180910390f35b610105600480360381019061010091906110a9565b6103af565b6040516101129190611134565b60405180910390f35b6101356004803603810190610130919061114f565b6106fd565b005b61013f6109e1565b005b6101496109f5565b60405161015691906111bb565b60405180910390f35b61017960048036038101906101749190611202565b610a02565b6040516101869190611134565b60405180910390f35b6101a960048036038101906101a49190611242565b610a50565b6040516101b69190611134565b60405180910390f35b6101c7610a8f565b6040516101d49190611134565b60405180910390f35b6101e5610ab8565b6040516101f2919061132d565b60405180910390f35b61021560048036038101906102109190610ed5565b610b46565b60405161022493929190610f2c565b60405180910390f35b61024760048036038101906102429190610ed5565b610bbd565b604051610254919061132d565b60405180910390f35b61027760048036038101906102729190610ed5565b610c8a565b005b600080600080600360008673ffffffffffffffffffffffffffffffffffffffff1673ffffffffffffffffffffffffffffffffffffffff1681526020019081526020016000206040518060600160405290816000820160009054906101000a900473ffffffffffffffffffffffffffffffffffffffff1673ffffffffffffffffffffffffffffffffffffffff1673ffffffffffffffffffffffffffffffffffffffff1681526020016001820160009054906101000a900473ffffffffffffffffffffffffffffffffffffffff1673ffffffffffffffffffffffffffffffffffffffff1673ffffffffffffffffffffffffffffffffffffffff1681526020016001820160149054906101000a900460ff1615151515815250509050806000015181602001518260400151935093509350509193909250565b60008073ffffffffffffffffffffffffffffffffffffffff168473ffffffffffffffffffffffffffffffffffffffff160361041f576040517f08c379a0000000000000000000000000000000000000000000000000000000008152600401610416906113d2565b60405180910390fd5b6000835111610463576040517f08c379a000000000000000000000000000000000000000000000000000000000815260040161045a9061143e565b60405180910390fd5b6000600360008673ffffffffffffffffffffffffffffffffffffffff1673ffffffffffffffffffffffffffffffffffffffff1681526020019081526020016000206040518060600160405290816000820160009054906101000a900473ffffffffffffffffffffffffffffffffffffffff1673ffffffffffffffffffffffffffffffffffffffff1673ffffffffffffffffffffffffffffffffffffffff1681526020016001820160009054906101000a900473ffffffffffffffffffffffffffffffffffffffff1673ffffffffffffffffffffffffffffffffffffffff1673ffffffffffffffffffffffffffffffffffffffff1681526020016001820160149054906101000a900460ff161515151581525050905080604001516105bc576040517f08c379a00000000000000000000000000000000000000000000000000000000081526004016105b3906114d0565b60405180910390fd5b731234567890abcdef1234567890abcdef123456789150600260003373ffffffffffffffffffffffffffffffffffffffff1673ffffffffffffffffffffffffffffffffffffffff168152602001908152602001600020829080600181540180825580915050600190039060005260206000200160009091909190916101000a81548173ffffffffffffffffffffffffffffffffffffffff021916908373ffffffffffffffffffffffffffffffffffffffff160217905550806000015173ffffffffffffffffffffffffffffffffffffffff163373ffffffffffffffffffffffffffffffffffffffff168373ffffffffffffffffffffffffffffffffffffffff167f8b4b1b0dcaba910eccab46f2ee0dc87a77f225166101a39744209a97d55df71d87896040516106ed92919061155e565b60405180910390a4509392505050565b610705610d10565b600073ffffffffffffffffffffffffffffffffffffffff168373ffffffffffffffffffffffffffffffffffffffff1603610774576040517f08c379a000000000000000000000000000000000000000000000000000000000815260040161076b906113d2565b60405180910390fd5b600073ffffffffffffffffffffffffffffffffffffffff168273ffffffffffffffffffffffffffffffffffffffff16036107e3576040517f08c379a00000000000000000000000000000000000000000000000000000000081526004016107da90611600565b60405180910390fd5b600073ffffffffffffffffffffffffffffffffffffffff168173ffffffffffffffffffffffffffffffffffffffff1603610852576040517f08c379a000000000000000000000000000000000000000000000000000000000815260040161084990611692565b60405180910390fd5b60405180606001604052808373ffffffffffffffffffffffffffffffffffffffff1681526020018273ffffffffffffffffffffffffffffffffffffffff16815260200160011515815250600360008573ffffffffffffffffffffffffffffffffffffffff1673ffffffffffffffffffffffffffffffffffffffff16815260200190815260200160002060008201518160000160006101000a81548173ffffffffffffffffffffffffffffffffffffffff021916908373ffffffffffffffffffffffffffffffffffffffff16021790555060208201518160010160006101000a81548173ffffffffffffffffffffffffffffffffffffffff021916908373ffffffffffffffffffffffffffffffffffffffff16021790555060408201518160010160146101000a81548160ff0219169083151502179055509050508273ffffffffffffffffffffffffffffffffffffffff167fcf814e91c6a3dafa8be5f9253f08697658c9c5245ed755a451bf4339c2c1fa3483836040516109d49291906116b2565b60405180910390a2505050565b6109e9610d10565b6109f36000610d97565b565b6000600180549050905090565b60026020528160005260406000208181548110610a1e57600080fd5b906000526020600020016000915091509054906101000a900473ffffffffffffffffffffffffffffffffffffffff1681565b60018181548110610a6057600080fd5b906000526020600020016000915054906101000a900473ffffffffffffffffffffffffffffffffffffffff1681565b60008060009054906101000a900473ffffffffffffffffffffffffffffffffffffffff16905090565b60606001805480602002602001604051908101604052809291908181526020018280548015610b3c57602002820191906000526020600020905b8160009054906101000a900473ffffffffffffffffffffffffffffffffffffffff1673ffffffffffffffffffffffffffffffffffffffff1681526020019060010190808311610af2575b5050505050905090565b60036020528060005260406000206000915090508060000160009054906101000a900473ffffffffffffffffffffffffffffffffffffffff16908060010160009054906101000a900473ffffffffffffffffffffffffffffffffffffffff16908060010160149054906101000a900460ff16905083565b6060600260008373ffffffffffffffffffffffffffffffffffffffff1673ffffffffffffffffffffffffffffffffffffffff168152602001908152602001600020805480602002602001604051908101604052809291908181526020018280548015610c7e57602002820191906000526020600020905b8160009054906101000a900473ffffffffffffffffffffffffffffffffffffffff1673ffffffffffffffffffffffffffffffffffffffff1681526020019060010190808311610c34575b50505050509050919050565b610c92610d10565b600073ffffffffffffffffffffffffffffffffffffffff168173ffffffffffffffffffffffffffffffffffffffff1603610d045760006040517f1e4fbdf7000000000000000000000000000000000000000000000000000000008152600401610cfb9190611134565b60405180910390fd5b610d0d81610d97565b50565b610d18610e5b565b73ffffffffffffffffffffffffffffffffffffffff16610d36610a8f565b73ffffffffffffffffffffffffffffffffffffffff1614610d9557610d59610e5b565b6040517f118cdaa7000000000000000000000000000000000000000000000000000000008152600401610d8c9190611134565b60405180910390fd5b565b60008060009054906101000a900473ffffffffffffffffffffffffffffffffffffffff169050816000806101000a81548173ffffffffffffffffffffffffffffffffffffffff021916908373ffffffffffffffffffffffffffffffffffffffff1602179055508173ffffffffffffffffffffffffffffffffffffffff168173ffffffffffffffffffffffffffffffffffffffff167f8be0079c531659141344cd1fd0a4f28419497f9722a3daafe3b4186f6b6457e060405160405180910390a35050565b600033905090565b6000604051905090565b600080fd5b600080fd5b600073ffffffffffffffffffffffffffffffffffffffff82169050919050565b6000610ea282610e77565b9050919050565b610eb281610e97565b8114610ebd57600080fd5b50565b600081359050610ecf81610ea9565b92915050565b600060208284031215610eeb57610eea610e6d565b5b6000610ef984828501610ec0565b91505092915050565b610f0b81610e97565b82525050565b60008115159050919050565b610f2681610f11565b82525050565b6000606082019050610f416000830186610f02565b610f4e6020830185610f02565b610f5b6040830184610f1d565b949350505050565b600080fd5b600080fd5b6000601f19601f8301169050919050565b7f4e487b7100000000000000000000000000000000000000000000000000000000600052604160045260246000fd5b610fb682610f6d565b810181811067ffffffffffffffff82111715610fd557610fd4610f7e565b5b80604052505050565b6000610fe8610e63565b9050610ff48282610fad565b919050565b600067ffffffffffffffff82111561101457611013610f7e565b5b61101d82610f6d565b9050602081019050919050565b82818337600083830152505050565b600061104c61104784610ff9565b610fde565b90508281526020810184848401111561106857611067610f68565b5b61107384828561102a565b509392505050565b600082601f8301126110905761108f610f63565b5b81356110a0848260208601611039565b91505092915050565b6000806000606084860312156110c2576110c1610e6d565b5b60006110d086828701610ec0565b935050602084013567ffffffffffffffff8111156110f1576110f0610e72565b5b6110fd8682870161107b565b925050604084013567ffffffffffffffff81111561111e5761111d610e72565b5b61112a8682870161107b565b9150509250925092565b60006020820190506111496000830184610f02565b92915050565b60008060006060848603121561116857611167610e6d565b5b600061117686828701610ec0565b935050602061118786828701610ec0565b925050604061119886828701610ec0565b9150509250925092565b6000819050919050565b6111b5816111a2565b82525050565b60006020820190506111d060008301846111ac565b92915050565b6111df816111a2565b81146111ea57600080fd5b50565b6000813590506111fc816111d6565b92915050565b6000806040838503121561121957611218610e6d565b5b600061122785828601610ec0565b9250506020611238858286016111ed565b9150509250929050565b60006020828403121561125857611257610e6d565b5b6000611266848285016111ed565b91505092915050565b600081519050919050565b600082825260208201905092915050565b6000819050602082019050919050565b6112a481610e97565b82525050565b60006112b6838361129b565b60208301905092915050565b6000602082019050919050565b60006112da8261126f565b6112e4818561127a565b93506112ef8361128b565b8060005b8381101561132057815161130788826112aa565b9750611312836112c2565b9250506001810190506112f3565b5085935050505092915050565b6000602082019050818103600083015261134781846112cf565b905092915050565b600082825260208201905092915050565b7f537061726b5661756c74466163746f72793a20696e76616c696420617373657460008201527f2061646472657373000000000000000000000000000000000000000000000000602082015250565b60006113bc60288361134f565b91506113c782611360565b604082019050919050565b600060208201905081810360008301526113eb816113af565b9050919050565b7f537061726b5661756c74466163746f72793a206e616d65207265717569726564600082015250565b600061142860208361134f565b9150611433826113f2565b602082019050919050565b600060208201905081810360008301526114578161141b565b9050919050565b7f537061726b5661756c74466163746f72793a20737061726b20636f6e6669672060008201527f6e6f742072656769737465726564000000000000000000000000000000000000602082015250565b60006114ba602e8361134f565b91506114c58261145e565b604082019050919050565b600060208201905081810360008301526114e9816114ad565b9050919050565b600081519050919050565b60005b838110156115195780820151818401526020810190506114fe565b60008484015250505050565b6000611530826114f0565b61153a818561134f565b935061154a8185602086016114fb565b61155381610f6d565b840191505092915050565b600060408201905081810360008301526115788185611525565b90506115876020830184610f02565b9392505050565b7f537061726b5661756c74466163746f72793a20696e76616c696420737061726b60008201527f20706f6f6c206164647265737300000000000000000000000000000000000000602082015250565b60006115ea602d8361134f565b91506115f58261158e565b604082019050919050565b60006020820190508181036000830152611619816115dd565b9050919050565b7f537061726b5661756c74466163746f72793a20696e76616c696420737061726b60008201527f2061546f6b656e20616464726573730000000000000000000000000000000000602082015250565b600061167c602f8361134f565b915061168782611620565b604082019050919050565b600060208201905081810360008301526116ab8161166f565b9050919050565b60006040820190506116c76000830185610f02565b6116d46020830184610f02565b939250505056fea264697066735822122073a5c798e674c2aeef0951101ae6f5b2fb8f17bd3ffc829746ec5a52ccbb34a164736f6c634300081c0033",
  "devdoc": {
    "details": "Creates vaults that integrate with Spark's curated yield (SparkLend) for yield-donating strategies  Integration with Spark Protocol: - Uses SparkLend's IPool interface for supplying/withdrawing assets - Tracks yield via Spark aToken balance (interest-bearing tokens) - Implements yield-donating strategy as per Spark's curated yield requirements  References: - Spark Documentation: https://docs.spark.fi/ - SparkLend: https://docs.spark.fi/developers/sparklend - Spark Deployments: https://docs.spark.fi/developers/deployments",
    "errors": {
      "OwnableInvalidOwner(address)": [
        {
          "details": "The owner is not a valid owner account. (eg. `address(0)`)"
        }
      ],
      "OwnableUnauthorizedAccount(address)": [
        {
          "details": "The caller account is not authorized to perform an operation."
        }
      ]
    },
    "kind": "dev",
    "methods": {
      "constructor": {
        "params": {
          "owner": "Owner address"
        }
      },
      "createVault(address,string,string)": {
        "params": {
          "asset": "The underlying asset token address",
          "description": "Vault description",
          "name": "Vault name"
        },
        "returns": {
          "vaultAddress": "Address of the newly created vault"
        }
      },
      "getAllVaults()": {
        "returns": {
          "addresses": "Array of all vault addresses"
        }
      },
      "getSparkConfig(address)": {
        "params": {
          "asset": "Asset token address"
        },
        "returns": {
          "isConfigured": "Whether configuration exists",
          "sparkAToken": "Address of Spark aToken",
          "sparkPool": "Address of Spark Lending Pool"
        }
      },
      "getVaultCount()": {
        "returns": {
          "count": "Total vault count"
        }
      },
      "getVaultsByDeployer(address)": {
        "params": {
          "deployer": "Address of the deployer"
        },
        "returns": {
          "addresses": "Array of vault addresses"
        }
      },
      "owner()": {
        "details": "Returns the address of the current owner."
      },
      "registerSparkConfig(address,address,address)": {
        "details": "To get aToken address: call sparkPool.getReserveData(asset) and use the aTokenAddress field      Reference: https://docs.spark.fi/developers/sparklend  Spark Pool Addresses: - Ethereum Mainnet: [See Spark deployments documentation] - Gnosis Chain: [See Spark deployments documentation] Reference: https://docs.spark.fi/developers/deployments",
        "params": {
          "asset": "The underlying asset token address (e.g., DAI, USDC)",
          "sparkATokenAddress": "Address of Spark aToken for this asset",
          "sparkPoolAddress": "Address of Spark Pool (SparkLend's main contract)"
        }
      },
      "renounceOwnership()": {
        "details": "Leaves the contract without owner. It will not be possible to call `onlyOwner` functions. Can only be called by the current owner. NOTE: Renouncing ownership will leave the contract without an owner, thereby disabling any functionality that is only available to the owner."
      },
      "transferOwnership(address)": {
        "details": "Transfers ownership of the contract to a new account (`newOwner`). Can only be called by the current owner."
      }
    },
    "title": "SparkVaultFactory",
    "version": 1
  },
  "userdoc": {
    "events": {
      "VaultCreated(address,address,string,address,address)": {
        "notice": "Events"
      }
    },
    "kind": "user",
    "methods": {
      "constructor": {
        "notice": "Initialize the factory"
      },
      "createVault(address,string,string)": {
        "notice": "Create a new Spark-integrated vault"
      },
      "getAllVaults()": {
        "notice": "Get all vault addresses"
      },
      "getSparkConfig(address)": {
        "notice": "Get Spark configuration for an asset"
      },
      "getVaultCount()": {
        "notice": "Get total number of vaults"
      },
      "getVaultsByDeployer(address)": {
        "notice": "Get vaults deployed by a specific address"
      },
      "registerSparkConfig(address,address,address)": {
        "notice": "Register Spark configuration for an asset"
      },
      "sparkConfigs(address)": {
        "notice": "Mapping from asset to Spark pool and aToken addresses"
      },
      "vaults(uint256)": {
        "notice": "Array of all deployed vaults"
      },
      "vaultsByDeployer(address,uint256)": {
        "notice": "Mapping from deployer to their vaults"
      }
    },
    "notice": "Factory contract for deploying new Spark-integrated ERC-4626 vaults",
    "version": 1
  },
  "storageLayout": {
    "storage": [
      {
        "astId": 8,
        "contract": "contracts/SparkVaultFactory.sol:SparkVaultFactory",
        "label": "_owner",
        "offset": 0,
        "slot": "0",
        "type": "t_address"
      },
      {
        "astId": 7076,
        "contract": "contracts/SparkVaultFactory.sol:SparkVaultFactory",
        "label": "vaults",
        "offset": 0,
        "slot": "1",
        "type": "t_array(t_address)dyn_storage"
      },
      {
        "astId": 7082,
        "contract": "contracts/SparkVaultFactory.sol:SparkVaultFactory",
        "label": "vaultsByDeployer",
        "offset": 0,
        "slot": "2",
        "type": "t_mapping(t_address,t_array(t_address)dyn_storage)"
      },
      {
        "astId": 7088,
        "contract": "contracts/SparkVaultFactory.sol:SparkVaultFactory",
        "label": "sparkConfigs",
        "offset": 0,
        "slot": "3",
        "type": "t_mapping(t_address,t_struct(SparkConfig)7096_storage)"
      }
    ],
    "types": {
      "t_address": {
        "encoding": "inplace",
        "label": "address",
        "numberOfBytes": "20"
      },
      "t_array(t_address)dyn_storage": {
        "base": "t_address",
        "encoding": "dynamic_array",
        "label": "address[]",
        "numberOfBytes": "32"
      },
      "t_bool": {
        "encoding": "inplace",
        "label": "bool",
        "numberOfBytes": "1"
      },
      "t_mapping(t_address,t_array(t_address)dyn_storage)": {
        "encoding": "mapping",
        "key": "t_address",
        "label": "mapping(address => address[])",
        "numberOfBytes": "32",
        "value": "t_array(t_address)dyn_storage"
      },
      "t_mapping(t_address,t_struct(SparkConfig)7096_storage)": {
        "encoding": "mapping",
        "key": "t_address",
        "label": "mapping(address => struct SparkVaultFactory.SparkConfig)",
        "numberOfBytes": "32",
        "value": "t_struct(SparkConfig)7096_storage"
      },
      "t_struct(SparkConfig)7096_storage": {
        "encoding": "inplace",
        "label": "struct SparkVaultFactory.SparkConfig",
        "members": [
          {
            "astId": 7091,
            "contract": "contracts/SparkVaultFactory.sol:SparkVaultFactory",
            "label": "sparkPool",
            "offset": 0,
            "slot": "0",
            "type": "t_address"
          },
          {
            "astId": 7093,
            "contract": "contracts/SparkVaultFactory.sol:SparkVaultFactory",
            "label": "sparkAToken",
            "offset": 0,
            "slot": "1",
            "type": "t_address"
          },
          {
            "astId": 7095,
            "contract": "contracts/SparkVaultFactory.sol:SparkVaultFactory",
            "label": "isConfigured",
            "offset": 20,
            "slot": "1",
            "type": "t_bool"
          }
        ],
        "numberOfBytes": "64"
      }
    }
  }
}