{
  "address": "0x7a9910d97939ad655Fe11582bd62Fdac203E3c11",
  "abi": [
    {
      "inputs": [
        {
          "internalType": "contract Mytoken",
          "name": "_token",
          "type": "address"
        }
      ],
      "stateMutability": "nonpayable",
      "type": "constructor"
    },
    {
      "inputs": [],
      "name": "claimReward__transferFailed",
      "type": "error"
    },
    {
      "inputs": [],
      "name": "stake__transferFailed",
      "type": "error"
    },
    {
      "inputs": [],
      "name": "staking__needMoreThanZero",
      "type": "error"
    },
    {
      "inputs": [],
      "name": "unstakeNot_called",
      "type": "error"
    },
    {
      "inputs": [],
      "name": "waitingPeriod_notCompleted",
      "type": "error"
    },
    {
      "inputs": [],
      "name": "withdraw__transferFailed",
      "type": "error"
    },
    {
      "anonymous": false,
      "inputs": [
        {
          "indexed": true,
          "internalType": "address",
          "name": "user",
          "type": "address"
        },
        {
          "indexed": true,
          "internalType": "uint256",
          "name": "amount",
          "type": "uint256"
        }
      ],
      "name": "RewardsClaimed",
      "type": "event"
    },
    {
      "anonymous": false,
      "inputs": [
        {
          "indexed": true,
          "internalType": "address",
          "name": "user",
          "type": "address"
        },
        {
          "indexed": true,
          "internalType": "uint256",
          "name": "amount",
          "type": "uint256"
        }
      ],
      "name": "Staked",
      "type": "event"
    },
    {
      "anonymous": false,
      "inputs": [
        {
          "indexed": true,
          "internalType": "address",
          "name": "user",
          "type": "address"
        },
        {
          "indexed": true,
          "internalType": "uint256",
          "name": "amount",
          "type": "uint256"
        },
        {
          "indexed": true,
          "internalType": "uint256",
          "name": "timstamp",
          "type": "uint256"
        }
      ],
      "name": "WithdrewStake",
      "type": "event"
    },
    {
      "stateMutability": "payable",
      "type": "fallback"
    },
    {
      "inputs": [],
      "name": "RewardRate",
      "outputs": [
        {
          "internalType": "uint256",
          "name": "",
          "type": "uint256"
        }
      ],
      "stateMutability": "view",
      "type": "function"
    },
    {
      "inputs": [
        {
          "internalType": "address",
          "name": "",
          "type": "address"
        }
      ],
      "name": "StakersBalance",
      "outputs": [
        {
          "internalType": "uint256",
          "name": "",
          "type": "uint256"
        }
      ],
      "stateMutability": "view",
      "type": "function"
    },
    {
      "inputs": [
        {
          "internalType": "address",
          "name": "account",
          "type": "address"
        }
      ],
      "name": "earned",
      "outputs": [
        {
          "internalType": "uint256",
          "name": "",
          "type": "uint256"
        }
      ],
      "stateMutability": "view",
      "type": "function"
    },
    {
      "inputs": [],
      "name": "getRewardsPerTokenShared",
      "outputs": [
        {
          "internalType": "uint256",
          "name": "",
          "type": "uint256"
        }
      ],
      "stateMutability": "view",
      "type": "function"
    },
    {
      "inputs": [],
      "name": "getTotalSupply",
      "outputs": [
        {
          "internalType": "uint256",
          "name": "",
          "type": "uint256"
        }
      ],
      "stateMutability": "view",
      "type": "function"
    },
    {
      "inputs": [],
      "name": "getUserBalance",
      "outputs": [
        {
          "internalType": "uint256",
          "name": "",
          "type": "uint256"
        }
      ],
      "stateMutability": "view",
      "type": "function"
    },
    {
      "inputs": [],
      "name": "getUserRewardsPerToken",
      "outputs": [
        {
          "internalType": "uint256",
          "name": "",
          "type": "uint256"
        }
      ],
      "stateMutability": "view",
      "type": "function"
    },
    {
      "inputs": [],
      "name": "myToken",
      "outputs": [
        {
          "internalType": "contract Mytoken",
          "name": "",
          "type": "address"
        }
      ],
      "stateMutability": "view",
      "type": "function"
    },
    {
      "inputs": [],
      "name": "rewardPerToken",
      "outputs": [
        {
          "internalType": "uint256",
          "name": "",
          "type": "uint256"
        }
      ],
      "stateMutability": "view",
      "type": "function"
    },
    {
      "inputs": [],
      "name": "s_lastUpdateTime",
      "outputs": [
        {
          "internalType": "uint256",
          "name": "",
          "type": "uint256"
        }
      ],
      "stateMutability": "view",
      "type": "function"
    },
    {
      "inputs": [],
      "name": "s_rewardPerTokenStored",
      "outputs": [
        {
          "internalType": "uint256",
          "name": "",
          "type": "uint256"
        }
      ],
      "stateMutability": "view",
      "type": "function"
    },
    {
      "inputs": [],
      "name": "s_totalSupply",
      "outputs": [
        {
          "internalType": "uint256",
          "name": "",
          "type": "uint256"
        }
      ],
      "stateMutability": "view",
      "type": "function"
    },
    {
      "inputs": [],
      "name": "stake",
      "outputs": [],
      "stateMutability": "payable",
      "type": "function"
    },
    {
      "inputs": [],
      "name": "unboundingPeriod",
      "outputs": [
        {
          "internalType": "uint256",
          "name": "",
          "type": "uint256"
        }
      ],
      "stateMutability": "view",
      "type": "function"
    },
    {
      "inputs": [
        {
          "internalType": "uint256",
          "name": "amount",
          "type": "uint256"
        }
      ],
      "name": "unstake",
      "outputs": [],
      "stateMutability": "nonpayable",
      "type": "function"
    },
    {
      "inputs": [],
      "name": "unstakeTimestamp",
      "outputs": [
        {
          "internalType": "uint256",
          "name": "",
          "type": "uint256"
        }
      ],
      "stateMutability": "view",
      "type": "function"
    },
    {
      "inputs": [
        {
          "internalType": "uint256",
          "name": "amount",
          "type": "uint256"
        }
      ],
      "name": "withdraw",
      "outputs": [],
      "stateMutability": "nonpayable",
      "type": "function"
    },
    {
      "stateMutability": "payable",
      "type": "receive"
    }
  ],
  "transactionHash": "0x9b34a51b78465ab953102888ce437ee2b9ed16f196600dbea8056c55f36f9e27",
  "args": [
    "0x19C846803F690a534BB744174F9672bffFab2E1F"
  ],
  "numDeployments": 3,
  "solcInputHash": "af8cbd8b7815adac22174f3c47ca1f9f",
  "bytecode": "0x60806040526064600155670de0b6b3a764000060055534801561002157600080fd5b506040516113d73803806113d7833981810160405281019061004391906100fe565b806000806101000a81548173ffffffffffffffffffffffffffffffffffffffff021916908373ffffffffffffffffffffffffffffffffffffffff1602179055505061012b565b600080fd5b600073ffffffffffffffffffffffffffffffffffffffff82169050919050565b60006100b98261008e565b9050919050565b60006100cb826100ae565b9050919050565b6100db816100c0565b81146100e657600080fd5b50565b6000815190506100f8816100d2565b92915050565b60006020828403121561011457610113610089565b5b6000610122848285016100e9565b91505092915050565b61129d8061013a6000396000f3fe6080604052600436106101015760003560e01c806375edb32511610095578063b8fcf93711610064578063b8fcf93714610307578063c406f34514610332578063c4e41b221461035d578063ccc23e5214610388578063cd3daf9d146103b357610102565b806375edb32514610249578063852b96c7146102745780638a1833a5146102b1578063b7013dc1146102dc57610102565b8063304ac91b116100d1578063304ac91b146101be5780633a4b66f1146101e95780636a74a0fc146101f35780636aa0838f1461021e57610102565b80628cc262146101045780631b52113b146101415780632e17de781461016c5780632e1a7d4d1461019557610102565b5b005b34801561011057600080fd5b5061012b60048036038101906101269190610e93565b6103de565b6040516101389190610ed9565b60405180910390f35b34801561014d57600080fd5b506101566104f7565b6040516101639190610ed9565b60405180910390f35b34801561017857600080fd5b50610193600480360381019061018e9190610f20565b61053e565b005b3480156101a157600080fd5b506101bc60048036038101906101b79190610f20565b610619565b005b3480156101ca57600080fd5b506101d36109bf565b6040516101e09190610ed9565b60405180910390f35b6101f16109c5565b005b3480156101ff57600080fd5b50610208610d18565b6040516102159190610ed9565b60405180910390f35b34801561022a57600080fd5b50610233610d1e565b6040516102409190610ed9565b60405180910390f35b34801561025557600080fd5b5061025e610d24565b60405161026b9190610ed9565b60405180910390f35b34801561028057600080fd5b5061029b60048036038101906102969190610e93565b610d2a565b6040516102a89190610ed9565b60405180910390f35b3480156102bd57600080fd5b506102c6610d42565b6040516102d39190610ed9565b60405180910390f35b3480156102e857600080fd5b506102f1610d48565b6040516102fe9190610ed9565b60405180910390f35b34801561031357600080fd5b5061031c610d8f565b6040516103299190610fac565b60405180910390f35b34801561033e57600080fd5b50610347610db3565b6040516103549190610ed9565b60405180910390f35b34801561036957600080fd5b50610372610dbd565b60405161037f9190610ed9565b60405180910390f35b34801561039457600080fd5b5061039d610dc7565b6040516103aa9190610ed9565b60405180910390f35b3480156103bf57600080fd5b506103c8610dcd565b6040516103d59190610ed9565b60405180910390f35b600080600660008473ffffffffffffffffffffffffffffffffffffffff1673ffffffffffffffffffffffffffffffffffffffff1681526020019081526020016000205490506000600860008573ffffffffffffffffffffffffffffffffffffffff1673ffffffffffffffffffffffffffffffffffffffff1681526020019081526020016000205490506000610471610dcd565b90506000600760008773ffffffffffffffffffffffffffffffffffffffff1673ffffffffffffffffffffffffffffffffffffffff16815260200190815260200160002054905080670de0b6b3a764000084846104cd9190610ff6565b866104d8919061102a565b6104e2919061109b565b6104ec91906110cc565b945050505050919050565b6000600860003373ffffffffffffffffffffffffffffffffffffffff1673ffffffffffffffffffffffffffffffffffffffff16815260200190815260200160002054905090565b6000600660003373ffffffffffffffffffffffffffffffffffffffff1673ffffffffffffffffffffffffffffffffffffffff1681526020019081526020016000205410156105c1576040517f08c379a00000000000000000000000000000000000000000000000000000000081526004016105b89061115d565b60405180910390fd5b42600b819055506103e860058190555042813373ffffffffffffffffffffffffffffffffffffffff167f874b6b6176c92c12e9ffa729ba947c2b035854d42b9df613ee4100f08548136760405160405180910390a450565b610621610dcd565b60048190555042600381905550610637336103de565b600760003373ffffffffffffffffffffffffffffffffffffffff1673ffffffffffffffffffffffffffffffffffffffff16815260200190815260200160002081905550600454600860003373ffffffffffffffffffffffffffffffffffffffff1673ffffffffffffffffffffffffffffffffffffffff16815260200190815260200160002081905550670de0b6b3a764000060055414158015610719575080600660003373ffffffffffffffffffffffffffffffffffffffff1673ffffffffffffffffffffffffffffffffffffffff1681526020019081526020016000205410155b1561098a5742600960003373ffffffffffffffffffffffffffffffffffffffff1673ffffffffffffffffffffffffffffffffffffffff1681526020019081526020016000208190555080600660003373ffffffffffffffffffffffffffffffffffffffff1673ffffffffffffffffffffffffffffffffffffffff168152602001908152602001600020546107ad9190610ff6565b600660003373ffffffffffffffffffffffffffffffffffffffff1673ffffffffffffffffffffffffffffffffffffffff16815260200190815260200160002081905550806002546107fe9190610ff6565b60028190555060008054906101000a900473ffffffffffffffffffffffffffffffffffffffff1673ffffffffffffffffffffffffffffffffffffffff16639dc29fac33836040518363ffffffff1660e01b815260040161085f92919061118c565b600060405180830381600087803b15801561087957600080fd5b505af115801561088d573d6000803e3d6000fd5b50505050803373ffffffffffffffffffffffffffffffffffffffff167ffc30cddea38e2bf4d6ea7d3f9ed3b6ad7f176419f4963bd81318067a4aee73fe60405160405180910390a360008054906101000a900473ffffffffffffffffffffffffffffffffffffffff1673ffffffffffffffffffffffffffffffffffffffff166340c10f193383600a600186610922919061102a565b61092c919061109b565b61093691906110cc565b6040518363ffffffff1660e01b815260040161095392919061118c565b600060405180830381600087803b15801561096d57600080fd5b505af1158015610981573d6000803e3d6000fd5b505050506109bc565b6040517f1f2dcc7600000000000000000000000000000000000000000000000000000000815260040160405180910390fd5b50565b60045481565b6109cd610dcd565b600481905550426003819055506109e3336103de565b600760003373ffffffffffffffffffffffffffffffffffffffff1673ffffffffffffffffffffffffffffffffffffffff16815260200190815260200160002081905550600454600860003373ffffffffffffffffffffffffffffffffffffffff1673ffffffffffffffffffffffffffffffffffffffff1681526020019081526020016000208190555060003403610aa6576040517fe5fbc37f00000000000000000000000000000000000000000000000000000000815260040160405180910390fd5b600034905080600660003373ffffffffffffffffffffffffffffffffffffffff1673ffffffffffffffffffffffffffffffffffffffff16815260200190815260200160002054610af691906110cc565b600660003373ffffffffffffffffffffffffffffffffffffffff1673ffffffffffffffffffffffffffffffffffffffff1681526020019081526020016000208190555080600254610b4791906110cc565b60028190555060003073ffffffffffffffffffffffffffffffffffffffff1634604051610b73906111e6565b60006040518083038185875af1925050503d8060008114610bb0576040519150601f19603f3d011682016040523d82523d6000602084013e610bb5565b606091505b5050905034600660003373ffffffffffffffffffffffffffffffffffffffff1673ffffffffffffffffffffffffffffffffffffffff1681526020019081526020016000208190555080610c3d576040517f08c379a0000000000000000000000000000000000000000000000000000000008152600401610c3490611247565b60405180910390fd5b600034905060008054906101000a900473ffffffffffffffffffffffffffffffffffffffff1673ffffffffffffffffffffffffffffffffffffffff166340c10f1933836040518363ffffffff1660e01b8152600401610c9d92919061118c565b600060405180830381600087803b158015610cb757600080fd5b505af1158015610ccb573d6000803e3d6000fd5b50505050343373ffffffffffffffffffffffffffffffffffffffff167f9e71bc8eea02a63969f509818f2dafb9254532904319f9dbda79b67bd34a5f3d60405160405180910390a3505050565b60025481565b60035481565b600b5481565b600a6020528060005260406000206000915090505481565b60015481565b6000600660003373ffffffffffffffffffffffffffffffffffffffff1673ffffffffffffffffffffffffffffffffffffffff16815260200190815260200160002054905090565b60008054906101000a900473ffffffffffffffffffffffffffffffffffffffff1681565b6000600454905090565b6000600254905090565b60055481565b60008060025403610de2576004549050610e2d565b600254670de0b6b3a764000060015460035442610dff9190610ff6565b610e09919061102a565b610e13919061102a565b610e1d919061109b565b600454610e2a91906110cc565b90505b90565b600080fd5b600073ffffffffffffffffffffffffffffffffffffffff82169050919050565b6000610e6082610e35565b9050919050565b610e7081610e55565b8114610e7b57600080fd5b50565b600081359050610e8d81610e67565b92915050565b600060208284031215610ea957610ea8610e30565b5b6000610eb784828501610e7e565b91505092915050565b6000819050919050565b610ed381610ec0565b82525050565b6000602082019050610eee6000830184610eca565b92915050565b610efd81610ec0565b8114610f0857600080fd5b50565b600081359050610f1a81610ef4565b92915050565b600060208284031215610f3657610f35610e30565b5b6000610f4484828501610f0b565b91505092915050565b6000819050919050565b6000610f72610f6d610f6884610e35565b610f4d565b610e35565b9050919050565b6000610f8482610f57565b9050919050565b6000610f9682610f79565b9050919050565b610fa681610f8b565b82525050565b6000602082019050610fc16000830184610f9d565b92915050565b7f4e487b7100000000000000000000000000000000000000000000000000000000600052601160045260246000fd5b600061100182610ec0565b915061100c83610ec0565b925082820390508181111561102457611023610fc7565b5b92915050565b600061103582610ec0565b915061104083610ec0565b925082820261104e81610ec0565b9150828204841483151761106557611064610fc7565b5b5092915050565b7f4e487b7100000000000000000000000000000000000000000000000000000000600052601260045260246000fd5b60006110a682610ec0565b91506110b183610ec0565b9250826110c1576110c061106c565b5b828204905092915050565b60006110d782610ec0565b91506110e283610ec0565b92508282019050808211156110fa576110f9610fc7565b5b92915050565b600082825260208201905092915050565b7f4e6f20616d6f756e74207374616b656400000000000000000000000000000000600082015250565b6000611147601083611100565b915061115282611111565b602082019050919050565b600060208201905081810360008301526111768161113a565b9050919050565b61118681610e55565b82525050565b60006040820190506111a1600083018561117d565b6111ae6020830184610eca565b9392505050565b600081905092915050565b50565b60006111d06000836111b5565b91506111db826111c0565b600082019050919050565b60006111f1826111c3565b9150819050919050565b7f4661696c656420746f2073656e64204574686572000000000000000000000000600082015250565b6000611231601483611100565b915061123c826111fb565b602082019050919050565b6000602082019050818103600083015261126081611224565b905091905056fea264697066735822122080172cb4a41e796aeb81ffc7d5c96507d478fe89bcbdfb39cd0253006af24c2e64736f6c634300081c0033",
  "devdoc": {
    "kind": "dev",
    "methods": {},
    "version": 1
  },
  "userdoc": {
    "kind": "user",
    "methods": {},
    "version": 1
  },
  "storageLayout": {
    "storage": [
      {
        "astId": 910,
        "contract": "contracts/Staking.sol:Staking",
        "label": "myToken",
        "offset": 0,
        "slot": "0",
        "type": "t_contract(Mytoken)844"
      },
      {
        "astId": 944,
        "contract": "contracts/Staking.sol:Staking",
        "label": "RewardRate",
        "offset": 0,
        "slot": "1",
        "type": "t_uint256"
      },
      {
        "astId": 946,
        "contract": "contracts/Staking.sol:Staking",
        "label": "s_totalSupply",
        "offset": 0,
        "slot": "2",
        "type": "t_uint256"
      },
      {
        "astId": 948,
        "contract": "contracts/Staking.sol:Staking",
        "label": "s_lastUpdateTime",
        "offset": 0,
        "slot": "3",
        "type": "t_uint256"
      },
      {
        "astId": 950,
        "contract": "contracts/Staking.sol:Staking",
        "label": "s_rewardPerTokenStored",
        "offset": 0,
        "slot": "4",
        "type": "t_uint256"
      },
      {
        "astId": 953,
        "contract": "contracts/Staking.sol:Staking",
        "label": "unboundingPeriod",
        "offset": 0,
        "slot": "5",
        "type": "t_uint256"
      },
      {
        "astId": 957,
        "contract": "contracts/Staking.sol:Staking",
        "label": "s_userStakedAmount",
        "offset": 0,
        "slot": "6",
        "type": "t_mapping(t_address,t_uint256)"
      },
      {
        "astId": 961,
        "contract": "contracts/Staking.sol:Staking",
        "label": "s_rewards",
        "offset": 0,
        "slot": "7",
        "type": "t_mapping(t_address,t_uint256)"
      },
      {
        "astId": 965,
        "contract": "contracts/Staking.sol:Staking",
        "label": "s_userRewardsPerToken_Paid",
        "offset": 0,
        "slot": "8",
        "type": "t_mapping(t_address,t_uint256)"
      },
      {
        "astId": 969,
        "contract": "contracts/Staking.sol:Staking",
        "label": "withdrawTimeStamp",
        "offset": 0,
        "slot": "9",
        "type": "t_mapping(t_address,t_uint256)"
      },
      {
        "astId": 973,
        "contract": "contracts/Staking.sol:Staking",
        "label": "StakersBalance",
        "offset": 0,
        "slot": "10",
        "type": "t_mapping(t_address,t_uint256)"
      },
      {
        "astId": 1193,
        "contract": "contracts/Staking.sol:Staking",
        "label": "unstakeTimestamp",
        "offset": 0,
        "slot": "11",
        "type": "t_uint256"
      }
    ],
    "types": {
      "t_address": {
        "encoding": "inplace",
        "label": "address",
        "numberOfBytes": "20"
      },
      "t_contract(Mytoken)844": {
        "encoding": "inplace",
        "label": "contract Mytoken",
        "numberOfBytes": "20"
      },
      "t_mapping(t_address,t_uint256)": {
        "encoding": "mapping",
        "key": "t_address",
        "label": "mapping(address => uint256)",
        "numberOfBytes": "32",
        "value": "t_uint256"
      },
      "t_uint256": {
        "encoding": "inplace",
        "label": "uint256",
        "numberOfBytes": "32"
      }
    }
  }
}